:020000040800F2
:100000006060002049060008450300084703000817
:10001000490300084B0300084D03000800000000DE
:10002000000000000000000000000000CD010008FA
:100030004F0300080000000011020008CB3B00083D
:1000400063060008630600086306000863060008EC
:1000500063060008630600086306000863060008DC
:1000600063060008630600086306000863060008CC
:1000700063060008630600086306000863060008BC
:1000800063060008630600086306000863060008AC
:10009000630600086306000863060008630600089C
:1000A000630600086306000863060008630600088C
:1000B000630600086306000863060008630600087C
:1000C000630600086306000863060008630600086C
:1000D00063060008E10500086306000863060008DF
:1000E000630600086306000863060008630600084C
:1000F000630600086306000863060008630600083C
:10010000630600086306000863060008630600082B
:10011000630600086306000863060008630600081B
:10012000630600086306000863060008630600080B
:1001300000F002F800F03AF80AA090E8000C8244BF
:100140008344AAF10107DA4501D100F02FF8AFF29C
:10015000090EBAE80F0013F0010F18BFFB1A43F0A5
:1001600001031847F83F000018400000103A24BF70
:1001700078C878C1FAD8520724BF30C830C144BF0C
:1001800004680C607047000000230024002500264E
:10019000103A28BF78C1FBD8520728BF30C148BFEA
:1001A0000B6070471FB51FBD10B510BD03F0A3FF56
:1001B0001146FFF7F7FF00F094F803F0C1FF03B416
:1001C000FFF7F2FF03BC00F0B5F90000224B1968FD
:1001D0000868B0E8F00F80F30988BFF36F8F4FF025
:1001E000000080F311884EF00D0E704700000000F3
:1001F00006480068006880F3088862B661B6BFF3FD
:100200004F8FBFF36F8F00DF00BF00BF08ED00E02E
:10021000EFF30980BFF36F8F0F4B1A6820E9F00FDF
:10022000106008B54FF0500080F31188BFF34F8F76
:10023000BFF36F8F02F025F94FF0000080F31188B3
:10024000BDE8084019680868B0E8F00F80F3098835
:10025000BFF36F8F704700BF38000020EFF30580B9
:100260007047000000252B4C01264FF44877C4F856
:100270009451C82002F03DF8C4F89461384602F069
:1002800038F8F4E7244C4FF4FA75D4F89401C143DC
:10029000C4F89411284602F02CF8F6E71CB503F0D8
:1002A00067FC1E4902200023CDE9000132221CA177
:1002B000AFF22F0001F0D0FD18490320091D0023E3
:1002C000CDE90001322219A1AFF2670001F0C4FDAF
:1002D0001248001F006801F00DFEBDE81C4003F04D
:1002E00063BC1CB54FF4407000F0CEF900F004F987
:1002F00000F0DAF809490120091F0023CDE90001C7
:1003000080220DA1AFF26B0001F0A6FD02F030FAE1
:1003100000201CBD00002342008021420400002078
:100320006C6564305F7461736B0000006C656431F0
:100330005F7461736B00000073746172745F746149
:10034000736B00007047FEE7FEE7FEE7FEE77047CD
:100350000CB500224C4800920192016841F48031B2
:1003600001604FF4A063016801F40031019100992C
:10037000491C0091019911B900999942F3D1016882
:10038000890333D50121019140490A6842F01002E6
:100390000A600A6822F003020A600A6842F0020258
:1003A0000A604168416041684160416841F4806190
:1003B0004160416821F47C114160416841F4E811D9
:1003C0004160016841F08071016001688901FCD5DC
:1003D000416821F003014160416841F00201416040
:1003E0004168C1F381010229FAD10CBD01920CBD13
:1003F000254810B5016841F0010101604168244AB7
:10040000114041600168234A11400160016821F4F4
:1004100080210160416821F4FE0141604FF41F0119
:100420008160FFF795FF1C494FF00060086010BD28
:10043000154A10B55068194B10F00C01184803D03C
:10044000042901D0082901D0036012E051685368E3
:1004500001F470114FF0020413F4803F04EB91415A
:1004600002D053689B0301D50E4B00E00B4B594360
:10047000016051680A4AC1F30311121D515C026800
:10048000CA40026010BD000000100240002002407F
:100490000000FFF8FFFFF6FE08ED00E000127A0012
:1004A0000C00002000093D0038B50121482000F073
:1004B00082FB2024ADF8004010208DF803000320BB
:1004C0000B4D8DF802006946284600F08CF920217A
:1004D000284600F0F2F9ADF80040064C6946204687
:1004E00000F081F92021204600F0E7F938BD000036
:1004F000000C01400018014010B56FF0040000F03E
:1005000008F90A480A490068B0FBF1F14FF47A7023
:1005100041434FF0E020026942F002020261416172
:10052000016941F00101016110BD00000C000020D3
:1005300000127A00704740490A885206FCD53E4AAC
:10054000C1B2121D1180704770B5054686B00121F9
:1005500044F2040000F02FFB4FF40070ADF81000DF
:1005600003248DF812401820344E8DF8130004A98E
:10057000304600F038F93015ADF8100004208DF841
:10058000130004A9304600F02EF925208DF8140040
:100590008DF815408DF8164001208DF8170005A83C
:1005A00000F077F80020ADF80400ADF80600ADF8D3
:1005B0000800ADF80C000C201F4CADF80A000095A7
:1005C0006946204600F076FB012240F22551204684
:1005D00000F0EDFB0121204600F0DFFB06B070BD0E
:1005E00070B5154C40F22551204600F097FC0028CC
:1005F0000ED0204600F02BFC114AC1B21088030433
:1006000006D444044FF0000306D50A2901D0138014
:1006100070BD40F400400DE00D2909D0C0F30D0479
:10062000084D401C80B229551080C728EFD870BDF6
:1006300040F48040108070BD003801400008014047
:1006400020000020B40000200948804709480047E6
:10065000FEE7FEE7FEE7FEE7FEE7FEE7FEE7FEE772
:10066000FEE7FEE704480549054A064B70470000CF
:10067000F103000831010008605A0020606000208A
:10068000605C0020605C002028490843284908601D
:10069000704730B50F23C27801780125F2B1244AA2
:1006A000126801F1E02102F4E062C2F5E062120A90
:1006B000C2F10404D3404278A24084781C40144321
:1006C000220181F80024007800F01F018D404009CC
:1006D000800000F1E020C0F8005130BD01F01F00A3
:1006E00085404809800000F1E020C0F8805130BD0D
:1006F000104A114001430E48001F016070470C4A28
:10070000121D0029116801D0014300E081431160EE
:1007100070474FF0E0210428086903D020F004005E
:100720000861704740F00400FAE700000000FA0595
:100730000CED00E080FFFF1F8F4910B5884206D105
:100740000121042000F049FA002104203BE08B49FC
:10075000884206D10121082000F03FFA002108203C
:1007600031E08749884206D10121102000F035FA96
:100770000021102027E08349884206D10121202052
:1007800000F02BFA002120201DE07F49884206D18D
:100790000121402000F021FA0021402013E07B4994
:1007A000884206D10121802000F017FA0021802024
:1007B00009E0774988420AD184150121204600F0DA
:1007C0000CFA00212046BDE8104000F006BA10BD2A
:1007D00010B50121084600F000FA0021BDE81040E4
:1007E000012000F0FAB9F0B5CC78002204F00F0334
:1007F000E40601D58C7823430C784FF00F0C14F0ED
:10080000FF0F4FF0010E1BD005680E880EFA02F4A0
:100810002640A64210D196000CFA06F725EA0707F3
:1008200003FA06F5CE783D43282E02D0482E02D09A
:1008300002E0446100E00461521C082AE5D305602F
:100840000A88FF2A1CD94468002202F108060EFA21
:1008500006F50E882E40AE420ED196000CFA06F731
:10086000BC4303FA06F7CE783C43282E00D14561FD
:10087000CE78482E00D10561521C082AE5D3446089
:10088000F0BD4FF6FF710180022181700421C1701B
:1008900070470246002092680A4200D0012070474B
:1008A000806880B2704702460020D2680A4200D0B9
:1008B00001207047C06880B2704701617047416194
:1008C00070470AB10161704741617047C16070476C
:1008D00041F48032826181618261816980697047FF
:1008E0002C4B10B51A684FF68074224042EA001073
:1008F0000843186010BD2849C8617047F0B5254C01
:10090000002801DAE36900E06368450D2E0185B235
:10091000C0F30157B540C0F30342032F05D0C60210
:100920000AD503269640B34307E023F0706263685C
:1009300023F07063636002E0AB4343F0706201B187
:100940002A43002801DAE261F0BD6260F0BD10B513
:100950008A0721F003040F49120F21440F238C68EA
:1009600093409C438C608B68904003438B6010BD28
:100970000949C1F8DC00704700080140000C014043
:10098000001001400014014000180140001C01400B
:10099000002001400000014000002042A5480168FD
:1009A00041F0010101604168A34A114041600168C2
:1009B000A24A11400160016821F480210160416870
:1009C00021F4FE0141604FF41F0181607047994995
:1009D0000A6822F480320A600A6822F480220A60DF
:1009E000B0F5803F07D0B0F5802F03D1086840F400
:1009F000A02008607047086840F48030F9E703469B
:100A0000002059098B4A01290AD002290AD0516ACB
:100A100003F01F02012393400B4200D001207047D6
:100A20001168F5E7116AF3E718B500204FF4A064E8
:100A300000903120FFF7E3FF0099491C0091A1428B
:100A400001D00028F5D03120FFF7D9FF002800D0D1
:100A5000012018BD774A116821F0F80141EAC00071
:100A600010607047764908607047724B5A680843B7
:100A700022F47C1210435860704771490866704731
:100A80006C4A516821F00301014351607047694885
:100A9000406800F00C007047664A516821F0F00190
:100AA000014351607047634A516821F4E06101439A
:100AB000516070475F4A516821F4605141EAC000BB
:100AC000506070475B4A0029517A01D0014300E031
:100AD0008143517270475A49C1F8D8007047554A4E
:100AE000516821F44041014351607047514900224F
:100AF00081F8202081F82020012802D0042802D18A
:100B0000052081F8200070474E4908607047494928
:100B10000A6A02430A6270474A49443908607047CA
:100B200030B5444A5168484B11F00C0103D00429F8
:100B300001D0082901D0036012E05168536801F424
:100B400070114FF0020413F4803F04EB914102D086
:100B500053689B0301D53D4B00E03B4B594301607B
:100B600051680F2303EA1111394B5C5C0168E140C5
:100B700041605468072505EA14241C5D21FA04F439
:100B80008460546805EAD4241B5DD940C160526872
:100B9000032303EA92322E4B1B1F9A5CB1FBF2F146
:100BA000016130BD234A0029516901D0014300E0B1
:100BB0008143516170471F4A0029916901D0014367
:100BC00000E08143916170471A4A0029D16901D040
:100BD000014300E08143D1617047164A0029D16882
:100BE00001D0014300E08143D1607047114A0029E0
:100BF000116901D0014300E081431161704711493F
:100C00004039086070470E49C86470470949C87187
:100C100070470848416A41F0807141627047054A57
:100C20000146002092680A4200D001207047014925
:100C300088727047001002400000FFF8FFFFF6FEC8
:100C4000000042428004424200127A0000093D0046
:100C500026000020C44910B588420AD101218C0326
:100C60002046FFF7BAFF2046BDE810400021FFF7FD
:100C7000B4BFBE49884202D101214C0410E0BC49F6
:100C8000884202D101218C040AE0BA49884202D18B
:100C90000121CC0404E0B84988420AD101210C05A5
:100CA0002046FFF7A3FF2046BDE810400021FFF7D4
:100CB0009DBF10BD30B50446008A85B00D464CF688
:100CC000FF710840E98801432182A0894EF6F311A3
:100CD0000840A9882A8911436A8902431143A181E6
:100CE000A08A4FF6FF410840A9890143A1826846C6
:100CF000FFF716FF9C48844201D1039800E0029858
:100D0000A189090400EBC00101EB0010296801D59D
:100D1000490000E08900B0FBF1F06422B0FBF2F181
:100D200009010B096FF018056B4300EB8300A389E1
:100D30001D044FF0320306D503EBC000B0FBF2F008
:100D400000F0070005E003EB0010B0FBF2F000F04C
:100D50000F000843208105B030BD4FF416510160EB
:100D600000218180C18001810C22428181817047F4
:100D700010B5028A4FF2FF031A400B884C882343B8
:100D80008C88C9880C4323431343038210BD002180
:100D9000018041808180C18070470029818902D013
:100DA00041F4005101E021F400518181704710B5F8
:100DB000C1F3421301F01F040121A140012B07D010
:100DC000022B07D01430002A026805D00A4304E041
:100DD0000C30F8E71030F6E78A43026010BD002AB5
:100DE000828A01D00A4300E08A4382827047028AE5
:100DF00022F00F020282028A0A430282704782892D
:100E000022F40062828182890A438281704700292C
:100E1000818902D041F0020101E021F002018181CB
:100E20007047028A22F020020282028A0A4302826A
:100E300070470029018A02D041F4804101E021F489
:100E4000804101827047C1F308018180704780882A
:100E5000C0F308007047818941F00101818170472A
:100E6000028BD2B20283028B42EA012101837047D6
:100E7000028B02F47F420283028B0A430283704793
:100E80000029818A02D041F0200101E021F02001F7
:100E9000818270470029818A02D041F0100101E06F
:100EA00021F01001818270470029818A02D041F02F
:100EB000080101E021F00801818270470029818941
:100EC00002D041F4004101E0C1F30E01818170477D
:100ED0000029818A02D041F4006101E021F400611F
:100EE00081827047828A22F004028282828A0A43C7
:100EF000828270470029818A02D041F0020101E01C
:100F000021F00201818270470246002012880A42C5
:100F100000D001207047C9430180704770B501F0CF
:100F20001F0501260024C1F3421306FA05F2012B26
:100F30000FD0022B0FD0838A4FEA11210088134271
:100F400006FA01F600EA060001D000B101242046AD
:100F500070BD8389F0E7038AEEE70A0A0121914018
:100F6000C943018070470000003801400044004040
:100F700000480040004C00400050004000F10801D3
:100F80004FF0FF32C0E90112C16001610021016030
:100F9000704700210161704742684A6093688B6026
:100FA00093685960916008610168491C016070474D
:100FB00030B50C68621C02D000F1080202E0026940
:100FC00004E01A4653681D68A542FAD953684B607D
:100FD00099608A60516008610168491C016030BDF8
:100FE000D0E9013201699A60D0E901235A604A6868
:100FF000824201D182684A60002202610868401E74
:10100000086070472DE9F0410E4604004FF00105DD
:101010002CD0E06B90B3AF1EB7FBF0F1206C814297
:101020003DD302F0A5FDD4E90F20216802FB001199
:10103000A1600021A163216861600A46D4E90F0123
:10104000401E00FB01212046E16000F8447F47700C
:1010500004F110009EB1FFF791FF04F12400FFF7A7
:101060008DFF02F0A1FD2846BDE8F081502080F3FD
:101070001188BFF34F8FBFF36F8FFEE70FE0216939
:101080000029EED001F07EFC0028EAD0FB494FF0A9
:1010900080500860BFF34F8FBFF36F8FE1E75020A0
:1010A00080F31188BFF34F8FBFF36F8FFEE738B522
:1010B000049D1BB158B14AB189B908E0502080F3B2
:1010C0001188BFF34F8FBFF36F8FFEE739B1502008
:1010D00080F31188BFF34F8FBFF36F8FFEE7482473
:1010E0001C46012384F846302B46009400F0C3FDD3
:1010F000204638BD30B16AB190F84630012B11D08E
:1011000000207047502080F31188BFF34F8FBFF34A
:101110006F8FFEE7502080F31188BFF34F8FBFF32E
:101120006F8FFEE709B103680B6010600120704704
:10113000F8B517460E4605001CD04FF0FF30B0FB47
:10114000F5F0B04216D305FB06F010F1490F11D8A7
:10115000483002F07DFD04000AD0002084F84600EB
:1011600004F148023B4631462846009400F083FDD6
:101170002046F8BD502080F31188BFF34F8FBFF396
:101180006F8FFEE72DE9F041044602F0F1FC94F97F
:10119000455004F1240609E0606A48B1304601F088
:1011A000F1FB08B101F01DFD6D1E6DB2002DF3DCE9
:1011B0004FF0FF3684F8456002F0F6FC02F0D8FCF0
:1011C00094F9445004F1100709E0206948B1384609
:1011D00001F0D8FB08B101F004FD6D1E6DB2002DC9
:1011E000F3DC84F84460BDE8F04102F0DDBC2DE999
:1011F000F041856B174604460026026C82B1C7B1E8
:10120000E06802F0B4FEE168206C091AE16022682F
:10121000914202D2A168081AE060022F16D017E0AE
:101220002068A8B9A06801F045FD06460020A0602E
:101230000EE0606802F09BFE216C6068084460600C
:10124000A168884204D32068606001E005B16D1E8A
:101250006D1CA563304607E72DE9FF4F83B01F469D
:101260008B4604004FF0000603D0BBF1000F08D0FE
:1012700011E0502080F31188BFF34F8FBFF36F8FC1
:10128000FEE7206C38B1502080F31188BFF34F8FF8
:10129000BFF36F8FFEE7022F0AD1E06B012807D062
:1012A000502080F31188BFF34F8FBFF36F8FFEE79D
:1012B00001F0A7FCDFF8C4914FF0000A4FF080580E
:1012C00048B9059838B1502080F31188BFF34F8F8B
:1012D000BFF36F8FFEE702F04BFCA06BE16B88421F
:1012E00005D3022F03D00598C8B1DEB11EE03A46FF
:1012F00059462046FFF77BFF616A19B104F12400CB
:1013000001F040FB28B1C9F80080BFF34F8FBFF355
:101310006F8F02F049FC012007B0BDE8F08F02F0AA
:1013200043FC21E0684601F01AFC012602F03CFC77
:1013300000F095FF02F01CFC94F94400401C01D120
:1013400084F844A094F94500401C01D184F845A0DC
:1013500002F02AFC05A9684601F008FC30B12046DD
:10136000FFF710FF00F0A0FE0020D5E702F000FC20
:10137000A06BE16B884201D1012500E0002502F05D
:1013800013FC95B104F11000059901F092FA204682
:10139000FFF7F8FE00F088FE00289CD1C9F8008015
:1013A000BFF34F8FBFF36F8F95E72046FFF7EAFE3D
:1013B00000F07AFE8FE710B5024600210120FFF70A
:1013C000B7FE044600F062FC204610BD38B50B465F
:1013D0000022009011460120FFF769FE044600F04C
:1013E00055FC204638BD10B5040009D001F0FDFBC6
:1013F000A168884214D1E068401EE06008D00DE08A
:10140000502080F31188BFF34F8FBFF36F8FFEE73B
:1014100000231A4619462046FFF71EFF012010BD83
:10142000002010BD2DE9F3434FF0000583B0040008
:10143000A94609D0206C78B1502080F31188BFF301
:101440004F8FBFF36F8FFEE7502080F31188BFF3FB
:101450004F8FBFF36F8FFEE701F0D3FBDFF81C80E7
:1014600000264FF0805758B9049848B1502080F3B7
:101470001188BFF34F8FBFF36F8FFEE704ED00E0DD
:1014800002F076FBA06BC8B1401EA063206810B9C3
:1014900001F0C3FCA060206950B104F1100001F01C
:1014A00071FA28B1C8F80070BFF34F8FBFF36F8F88
:1014B00002F07AFB012005B0BDE8F083049808B182
:1014C0001DB106E002F070FB5EE0684601F047FBEC
:1014D000012502F069FB00F0C2FE02F049FB94F91D
:1014E0004400401C01D184F8446094F94500401C3C
:1014F00001D184F8456002F057FB04A9684601F069
:1015000035FB0028204614D0FFF73CFE00F0CCFD50
:10151000204600F0C6FB0028B2D0B9F1000F33D04E
:1015200002F026FB606A50B3206B0068C0F107012F
:1015300026E000F0B6FBE0B1206838B902F018FBF5
:10154000A06801F06AFB814602F02EFB04F1240042
:10155000049901F0AEF92046FFF714FE00F0A4FD57
:1015600000288DD1C8F80070BFF34F8FBFF36F8F85
:1015700086E72046FFF706FE00F096FD80E7002193
:10158000A06801F0E6FB9DE7002094E770B50D46EA
:10159000040009D001F029FBA16888420CD1E06861
:1015A000401CE060012070BD502080F31188BFF323
:1015B0004F8FBFF36F8FFEE729462046FFF732FFBC
:1015C0000028F0D0E168491CE16070BD38B50C46D8
:1015D00060B184420AD802211346002200911146CC
:1015E000FFF765FD002800D0846338BD502080F3EC
:1015F0001188BFF34F8FBFF36F8FFEE710B50C4616
:1016000048B1844207D802220021FFF791FD00284B
:1016100000D0846310BD502080F31188BFF34F8F3A
:10162000BFF36F8FFEE72DE9F0471F4690468946CE
:10163000040003D0B9F1000F08D011E0502080F36E
:101640001188BFF34F8FBFF36F8FFEE7206C38B167
:10165000502080F31188BFF34F8FBFF36F8FFEE7E9
:10166000022F0AD1E06B012807D0502080F31188A7
:10167000BFF34F8FBFF36F8FFEE702F0BAFA50202F
:10168000EFF3118680F31188BFF34F8FBFF36F8F95
:10169000A06BE16B884206D3022F04D0002086F3B2
:1016A0001188BDE8F08794F94550A06B3A46494649
:1016B0002046FFF79CFD681C0AD001F0A8F885427F
:1016C00004D27F2D14D06D1C84F845500120E6E72C
:1016D000606A0028FAD004F1240001F053F90028D0
:1016E000F4D0B8F1000FF1D00121C8F80010EDE7F7
:1016F000502080F31188BFF34F8FBFF36F8FFEE749
:101700002DE9F0410F46040009D0206C78B150203B
:1017100080F31188BFF34F8FBFF36F8FFEE7502028
:1017200080F31188BFF34F8FBFF36F8FFEE7206800
:1017300048B9A06838B1502080F31188BFF34F8FAB
:10174000BFF36F8FFEE702F054FA5020EFF31186DB
:1017500080F31188BFF34F8FBFF36F8FA06BE16BE6
:10176000814226D994F94550401CA063681C0AD0D8
:1017700001F04DF8854204D27F2D12D06D1C84F803
:101780004550012016E0606A0028FAD004F12400D8
:1017900001F0F8F80028F4D0002FF2D001203860D2
:1017A000EFE7502080F31188BFF34F8FBFF36F8FA7
:1017B000FEE7002086F3118856E430B4026C0B4635
:1017C000002A0BD0C1681144C1608468A14201D3D2
:1017D0000168C16030BC184602F0C9BB30BC70471C
:1017E0002DE9F74783B08A4604004FF0000603D086
:1017F000BAF1000F08D011E0502080F31188BFF338
:101800004F8FBFF36F8FFEE7206C38B1502080F30D
:101810001188BFF34F8FBFF36F8FFEE701F0F1F92F
:10182000DFF8989400274FF0805848B9059838B1F0
:10183000502080F31188BFF34F8FBFF36F8FFEE707
:1018400002F096F9A56BBDB151462046FFF7B5FFF2
:101850006D1EA563206950B104F1100001F092F8EB
:1018600028B1C9F80080BFF34F8FBFF36F8F02F02C
:101870009BF9012006B014E7059808B11EB106E0F7
:1018800002F092F927E0684601F069F9012602F0BA
:101890008BF900F0E4FC02F06BF994F94400401C71
:1018A00001D184F8447094F94500401C01D184F8BA
:1018B000457002F079F905A9684601F057F900284A
:1018C00020460AD0FFF75EFC00F0EEFB204600F059
:1018D000E8F90028B4D00020CCE700F0E2F990B19C
:1018E00004F12400059900F0E4FF2046FFF74AFCCC
:1018F00000F0DAFB0028A3D1C9F80080BFF34F8FB6
:10190000BFF36F8F9CE72046FFF73CFC00F0CCFB59
:1019100096E72DE9F74382B0894604004FF00005B1
:1019200003D0B9F1000F08D011E0502080F31188E6
:10193000BFF34F8FBFF36F8FFEE7206C38B150209D
:1019400080F31188BFF34F8FBFF36F8FFEE701F075
:1019500058F9DFF8688300264FF0805748B904989B
:1019600038B1502080F31188BFF34F8FBFF36F8FD2
:10197000FEE702F0FDF8A06BB0B149462046E568ED
:10198000FFF71BFFE560606A50B104F1240000F02E
:10199000F9FF28B1C8F80070BFF34F8FBFF36F8F06
:1019A00002F002F9012086E5049808B11DB106E0B5
:1019B00002F0FAF827E0684601F0D1F8012502F0BC
:1019C000F3F800F04CFC02F0D3F894F94400401C0A
:1019D00001D184F8446094F94500401C01D184F899
:1019E000456002F0E1F804A9684601F0BFF800285C
:1019F00020460AD0FFF7C6FB00F056FB204600F059
:101A000050F90028B5D0002055E500F04AF990B112
:101A100004F12400049900F04CFF2046FFF7B2FBCC
:101A200000F042FB0028A4D1C8F80070BFF34F8F2C
:101A3000BFF36F8F9DE72046FFF7A4FB00F034FB58
:101A400097E72DE9F04790468946040003D0B9F1A5
:101A5000000F08D011E0502080F31188BFF34F8FA2
:101A6000BFF36F8FFEE7206C38B1502080F31188F0
:101A7000BFF34F8FBFF36F8FFEE702F0BAF850202D
:101A8000EFF3118780F31188BFF34F8FBFF36F8F90
:101A9000A66B66B394F9445049462046FFF78DFE85
:101AA000761EA663681C0AD000F0B1FE854204D2FF
:101AB0007F2D14D06D1C84F84450012018E020695B
:101AC0000028FAD004F1100000F05CFF0028F4D0E8
:101AD000B8F1000FF1D00121C8F80010EDE7502057
:101AE00080F31188BFF34F8FBFF36F8FFEE70020A5
:101AF00087F31188D5E52DE9F0410E46040019D091
:101B000006B3206C40B302F074F85020EFF3118557
:101B100080F31188BFF34F8FBFF36F8FA06B30B18D
:101B200031462046E768FFF748FE0120E76085F36D
:101B3000118841E6502080F31188BFF34F8FBFF327
:101B40006F8FFEE7006C38B1502080F31188BFF32F
:101B50004F8FBFF36F8FFEE7502080F31188BFF3E4
:101B60004F8FBFF36F8FFEE710B5040006D001F072
:101B7000FFFFA46B02F018F8204610BD502080F340
:101B80001188BFF34F8FBFF36F8FFEE710B50400CE
:101B900008D001F0EDFFD4E90E10441A02F004F869
:101BA000204610BD502080F31188BFF34F8FBFF344
:101BB0006F8FFEE708B1806B7047502080F311886B
:101BC000BFF34F8FBFF36F8FFEE728B190F8461039
:101BD000002909D102F0D5B8502080F31188BFF355
:101BE0004F8FBFF36F8FFEE77047006C7047C06B7D
:101BF000704718B1806B48B100207047502080F3C7
:101C00001188BFF34F8FBFF36F8FFEE7012070473E
:101C100028B1816BC06B814209D1012070475020EF
:101C200080F31188BFF34F8FBFF36F8FFEE7002063
:101C3000704770B515460E46044601F099FF94F9B9
:101C400044100020491C01D184F8440094F9451047
:101C5000491C01D184F8450001F0A6FFA06B28B90A
:101C60002A46314604F1240000F067FE2046BDE814
:101C70007040FFF787BA0346009829B10260C0E9B7
:101C80000F310121FFF7BEB90060F8E7002807D047
:101C90000021816001600B460A46C160FFF7DCBA93
:101CA000704710B5044601F063FFA06B20B100241B
:101CB00001F07AFF204610BD0124F9E704ED00E0B1
:101CC0002DE9F0479946DDE9097480466FF003037A
:101CD000206B03EB82021044089D20F0070670077A
:101CE00007D0502080F31188BFF34F8FBFF36F8F61
:101CF000FEE761B1002023180A5C83F834200A5CF7
:101D000012B1401C1028F6D3002084F84300072DA0
:101D100007D3502080F31188BFF34F8FBFF36F8F2D
:101D2000FEE7E562201D6564FFF733F904F1180052
:101D3000FFF72FF92461C5F107006462A0614A46EC
:101D40004146304601F098FE2060002F00D03C60F4
:101D5000BDE8F0872DE9F041044601F009FFFE4E91
:101D6000B068401CB0603068FC4F10B1706940B37F
:101D70002DE03460B068012829D1002505EB8500ED
:101D800007EB8000FFF7FAF86D1C072DF6D3F34838
:101D90008C30FFF7F3F8F148A030FFF7EFF8EF4889
:101DA000B430FFF7EBF8ED48C830FFF7E7F8EB4841
:101DB000DC30FFF7E3F8E9488C3070631430B0632F
:101DC00005E03068E16AC06A884200D83460706A11
:101DD000401C7062E06A3169884200D9306100EBD2
:101DE000800007EB80004068A0608168E160826845
:101DF000211D51608160E06A00EB800007EB8001EB
:101E0000616157F82010491C47F8201001F0CCFE02
:101E1000706900280CD03068E16AC06A884207D235
:101E2000CF494FF080500860BFF34F8FBFF36F8FE3
:101E3000BDE8F081F0B585B00AAF97E870000027E3
:101E4000049704AF8DE8F00001F0B3FA08B1FFF792
:101E500081FF049805B0F0BD2DE9FF5F8346DDE901
:101E60000E8716468A469946900001F0F1FE05005D
:101E70001AD0542001F0ECFE040011D0542102F0DD
:101E8000DDF80020256384F85100CDE90240CDE95A
:101E900000874B46324651465846FFF711FF04E093
:101EA000284601F06EFF00E00024200005D0FFF777
:101EB00051FF012004B0BDE8F09F4FF0FF30F9E77B
:101EC00010B5044690F8510058B101280CD00228F2
:101ED0000FD0502080F31188BFF34F8FBFF36F8F67
:101EE000FEE7206B01F04DFF2046BDE8104001F0F9
:101EF00048BF10BD70B50446002501F039FE964E6E
:101F000004B93468201DFFF76BF8A06A18B104F11A
:101F10001800FFF765F8706A401C706230688442F0
:101F200001D1012000E00020716951B148B18B4816
:101F3000211DC830FFF730F87068401C7060012523
:101F400004E0B068401EB06001F068FA01F02CFEB9
:101F500015B92046FFF7B4FF7069002814D0306827
:101F6000844211D1306B38B1502080F31188BFF317
:101F70004F8FBFF36F8FFEE779494FF080500860B5
:101F8000BFF34F8FBFF36F8F70BD2DE9F041724EDD
:101F90000025306B20B1B069401CB061284647E78E
:101FA000F468641CF46013D1706B006838B1502081
:101FB00080F31188BFF34F8FBFF36F8FFEE7706B15
:101FC000B16B7163B063306A401C306201F026FA75
:101FD000B06ADFF888E184420BD34FF0000C706BDD
:101FE0000068B0B1706BC068C1684868844213D2A1
:101FF000B0623068C06A00EB80005EF82000012803
:1020000000D9012554481C3000680028C6D001259D
:10201000C4E74FF0FF30EBE7D1E9023248699A603C
:10202000D1E902235A6043680A1D934201D1CB686B
:102030004360C1F814C003685B1E0360886A88B1FE
:10204000D1E907379F60D1E907377B60476801F125
:1020500018039F4201D10B6A4360C1F828C003688E
:102060005B1E0360C86A3369984200D9306100EB97
:1020700080000EEB8000406888608368CB608368D6
:102080005A608260C86A00EB80000EEB80024A61F1
:102090005EF82020521C4EF82020C86A3168C96AB8
:1020A00088429CD901259AE72DE9F0470024A246F1
:1020B00001F05EFD284F0025386B28B1386B401EBB
:1020C0003863386B40B18CE0502080F31188BFF347
:1020D0004F8FBFF36F8FFEE7B868204A1E4EB432B1
:1020E0004FF000094FF001081C36D8BB79E0D068EA
:1020F000C468D4E90731A06A9960D4E9071359602C
:10210000436804F118018B4201D1216A4160C4F88F
:10211000289001684B46491E0160D4E902C16069FC
:10212000CCF80810D4E9021CCCF80410D0F804C094
:10213000211D8C4503D1D4F80CC0C0F804C06361E4
:1021400003685B1E0360E06A3B69984200D938610E
:1021500000EB8000014B06E038000020240800203E
:1021600004ED00E01EE003EB80004068A060D0F8C2
:1021700008C0C4F80CC0D0F808C0CCF804108160C6
:10218000E06A00EB800003EB8001616153F82010EE
:10219000491C43F82010E06A3968C96A884201D9AD
:1021A00046F8258010680028A1D10CB101F036F95D
:1021B000BC6944B1FFF7E9FE08B146F82580641E0A
:1021C000F8D1C7F8189056F8250050B138684FF08C
:1021D000010AFA494FF080500860BFF34F8FBFF3F8
:1021E0006F8F01F0E1FC5046B2E52DE9F047F44D68
:1021F0000F460446EE68D5F83490D5F83880286844
:10220000001DFEF7EDFE601C14D19FB1ED492A6858
:10221000486890602B688268DA602A688368121DBB
:102220005A602A68121D8260286841610868401C53
:1022300008608DE528683444B4424460296805D2BA
:102240004046BDE8F047091DFEF7B2BE4846091DED
:10225000FEF7AEFEA86A8442EBD2AC6278E5D848BD
:10226000016B491C0163704770B50D4603004FF0C8
:1022700000040FD0B5B1FFF7F2FFD148C268006B80
:10228000012817D0502080F31188BFF34F8FBFF380
:102290006F8FFEE7502080F31188BFF34F8FBFF39D
:1022A0006F8FFEE7502080F31188BFF34F8FBFF38D
:1022B0006F8FFEE718684119904202D9884202D810
:1022C00004E0884201D8914200D9012419601CB170
:1022D000881A0021FFF789FFFFF7E6FE38B9B749F2
:1022E0004FF080500860BFF34F8FBFF36F8F2046D1
:1022F00070BD10B5020015D0FFF7B1FFB049096BF2
:10230000012907D0502080F31188BFF34F8FBFF30E
:102310006F8FFEE700211046FFF767FFFFF7C4FE4F
:10232000002807D1A5494FF080500860BFF34F8FB8
:10233000BFF36F8F10BD10B5044601F019FC0CB946
:102340009F480468E46A01F02FFC204610BD10B5D8
:10235000044601F04EFC5020EFF3118180F3118808
:10236000BFF34F8FBFF36F8F0CB995480468E06AD5
:1023700081F3118810BD10B5044601F0F9FB0CB9CA
:102380008F480468646C01F00FFC204610BD10B546
:10239000044601F02EFC5020EFF3118180F31188E8
:1023A000BFF34F8FBFF36F8F0CB985480468606C23
:1023B00081F3118810BD2DE9F04100260D46044639
:1023C000072907D3502080F31188BFF34F8FBFF345
:1023D0006F8FFEE701F0CCFB794F04B93C68616C6C
:1023E000A9424AD038688D4206D9844207D038685D
:1023F000C06AA84202D302E0844200D10126E06A0A
:10240000814201D0A84200D2E5626564A169002939
:1024100002DBC5F10701A1616A4D00EB8000DC3DE4
:10242000616905EB800081421ED1201DFEF7D8FDB9
:10243000E06A3969884200D9386100EB800005EB19
:1024400080004068A0608168E1608268211D516061
:102450008160E06A00EB800005EB8001616155F866
:102460002010491C45F820103EB154494FF08050CF
:102470000860BFF34F8FBFF36F8FBDE8F04101F0ED
:1024800093BB4F4B10B5196B03F11C0011B1012127
:10249000016010BD0021016018694A49DC3901E082
:1024A000C0B1401E00EB800251F82220002AF7D074
:1024B00000EB800201EB820101F108044A685268D6
:1024C0004A60A24201D1CA684A60D16819601861A5
:1024D000186810BD502080F31188BFF34F8FBFF3F1
:1024E0006F8FFEE770B5044601F042FB344E04B92D
:1024F0003468201DFEF774FDA06A18B104F11800BD
:10250000FEF76EFD211D2F48FEF746FD0022154601
:10251000A01890F85010012901D180F85050521C99
:10252000012AF5DB01F040FB706928B101F020FBC6
:1025300000F074FF01F038FB3068844213D17069F9
:1025400090B1306B38B1502080F31188BFF34F8FBA
:10255000BFF36F8FFEE719494FF080500860BFF35B
:102560004F8FBFF36F8F70BD1648B1680068884207
:1025700001D1356070BDBDE8704082E7002248B1EE
:10258000104B4169994217D1816A283B994213D077
:1025900041B111E0502080F31188BFF34F8FBFF39A
:1025A0006F8FFEE701220021431893F85030012B72
:1025B0000AD0491C0129F7DB1046704704ED00E002
:1025C00038000020000900200022F5E770B5040063
:1025D0003DD0FE4D2868844241D001F0C9FA204622
:1025E000FFF7CCFF78B3201DFEF7FAFCE06A2969FB
:1025F000884200D92861F64A00EB800002EB800097
:102600004068A0608168E1608368211D5960816035
:10261000E06A00EB800002EB80006061E06A00EBA2
:10262000800052F82010491C42F820102868E16A06
:10263000C06A884207D2E7494FF080500860BFF374
:102640004F8FBFF36F8FBDE8704001F0ADBA5020DF
:1026500080F31188BFF34F8FBFF36F8FFEE770BD1C
:102660002DE9F041002604001BD001F0C2FA5020F1
:10267000EFF3118580F31188BFF34F8FBFF36F8F96
:102680002046FFF77BFF40B1D04F386B88B1D04870
:1026900004F11801B430FEF77FFC85F31188304651
:1026A0007DE4502080F31188BFF34F8FBFF36F8F0D
:1026B000FEE7E06A3968C96A884203D9C34901263E
:1026C0001C310E60201DFEF78BFCE06A39698842E0
:1026D00000D93861BE4A00EB800002EB8000406800
:1026E000A0608168E1608368211D59608160E06AB3
:1026F00000EB800002EB80006061E06A00EB80008C
:1027000052F82010491C42F82010C6E7B24B036073
:1027100003F154000860802010604EE770B5AC4EA5
:10272000AA4DC83611E001F023FAF068C468201DF4
:10273000FEF756FCA868401EA8606868401E6860E6
:1027400001F032FA2046FFF7BBFB68680028EAD1A7
:1027500070BD9F4E4FF080549E4DFFF7DFFF3068F5
:102760000128FAD92C60BFF34F8FBFF36F8FF4E7C6
:1027700010B500F05FFE954C012803D100F08EFFEC
:10278000012802D0401C12D00FE0502080F31188A5
:10279000BFF34F8FBFF36F8F4FF0FF30A062012068
:1027A00060610020E06001F082F9E06A10BD502015
:1027B00080F31188BFF34F8FBFF36F8FFEE770B5C3
:1027C00001F03DF8FFF796FB804D00243C3555F8AD
:1027D0002400FFF78FFB641C012CF8DBFFF79EFF42
:1027E000502080F31188BFF34F8FBFF36F8F77496D
:1027F00000204861BDE8704001F0ACB97348C06882
:10280000DBE610B501F0F5F97048C06810BD6F48FF
:102810008068D2E608B96D48006808B13430CCE66B
:10282000502080F31188BFF34F8FBFF36F8FFEE707
:1028300011B14AB180B111E0502080F31188BFF38B
:102840004F8FBFF36F8FFEE7502080F31188BFF3E7
:102850004F8FBFF36F8FFEE75C48006890F85130F0
:10286000022B03D0012B04D00020A6E6036B0B60E3
:1028700002E0006B08600020106001209DE670B54A
:10288000524C0546206B38B1502080F31188BFF3BD
:102890004F8FBFF36F8FFEE7FFF7E1FC01F068F9A0
:1028A000A0692844A06101F07FF9BDE87040FFF7FE
:1028B000FBBB10B50C4648B1444909681831FEF716
:1028C00077FB2046BDE8104001218EE4502080F3C4
:1028D0001188BFF34F8FBFF36F8FFEE730B4E0B1C5
:1028E0003A4B1C6B0CB31C6841F00041A16141687C
:1028F0001C68E1618C681D682C621C688D68183446
:102900006C601C6818348C60196888620168491C06
:10291000016030BC0121104667E4502080F311882B
:10292000BFF34F8FBFF36F8FFEE7502080F3118806
:10293000BFF34F8FBFF36F8FFEE7F0B40C46C8B103
:10294000224B41681D68E9618D681E6835621D680B
:102950008E68183575601D6818358D601968886235
:102960000168491C01600AB14FF0FF342046F0BCF9
:1029700011463AE4502080F31188BFF34F8FBFF324
:102980006F8FFEE730B5C068C06838B3D0E9073252
:10299000816A9A60D0E907235A604B6800F11802F7
:1029A000934201D1036A4B60002484620B685B1E72
:1029B0000B60064B196B39B3054CB4346168C161C7
:1029C0008D6805628D686A608A6008E038000020C2
:1029D0002408002004ED00E07C0100200CE084626B
:1029E0002168491C2160C06A1968C96A884239D9BE
:1029F000FE4A0120106030BD502080F31188BFF3E3
:102A00004F8FBFF36F8FFEE7D0E902524169AA6092
:102A1000D0E902256A604D68021D954201D1C56862
:102A20004D6044610C68641E0C60C16A1C69A1425F
:102A300000D91961EE4C01EB810104EB8101496879
:102A400081608D68C5608D686A608A60C16A01EBCB
:102A5000810104EB8102426154F82120521C44F8A8
:102A60002120C0E7002030BDE04B30B51C3B1A6B85
:102A7000F2B341F000410160C168D1B3D0E9015423
:102A80000269AC60D0E901456C605468844201D1B0
:102A900084685460002404611068401E1060D1E90D
:102AA00002524869AA60D1E902256A6045680A1D98
:102AB000954201D1CD6845604C610468641E046094
:102AC000C86A1C69A04200D91861C94C00EB80009B
:102AD00004EB8000406888608568CD6085686A6026
:102AE0008260C86A00EB800004EB80024A6101E06A
:102AF0000EE015E054F82020521C44F82020C86A4B
:102B00001968C96A884202D9B8490120086030BDF5
:102B1000502080F31188BFF34F8FBFF36F8FFEE714
:102B2000502080F31188BFF34F8FBFF36F8FFEE704
:102B300010B504000BD001F01BF8AC481C38016A3A
:102B40002160C0686060BDE8104001F02DB85020E1
:102B500080F31188BFF34F8FBFF36F8FFEE7A34958
:102B60001C390A6A0260C968416026E52DE9F04116
:102B70000C46050015D0E4B100F0FAFF9B4E1C3E58
:102B8000F1686B682268C81A571C1AD02F68D6F8EB
:102B900020C00026674516D08B4214D80125266038
:102BA0001BE0502080F31188BFF34F8FBFF36F8F6E
:102BB000FEE7502080F31188BFF34F8FBFF36F8F74
:102BC000FEE7002509E0824205D9101A2060284658
:102BD000FFF7C5FFF5E70125266000F0E5FF284671
:102BE0005EE5824901200860E7E480481C380068FF
:102BF000E3E401004FF0000002D17C481C3800687B
:102C0000DBE47A481C38416919B1006B18B1002027
:102C1000D3E40120D1E40220CFE470B504004FF0EA
:102C2000000040D0714DE16A1C3D2A68D26A914291
:102C30003AD2A069002804DB2868C06AC0F1070006
:102C4000A061E06A6A4E00EB8000616906EB8000DB
:102C5000814224D1201DFEF7C3F92868C06AE062D2
:102C60002969884200D9286100EB800006EB8000CA
:102C70004068A0608168E1608268211D51608160C8
:102C8000E06A00EB800006EB80006061E06A00EB28
:102C9000800056F82010491C46F8201002E02868F1
:102CA000C06AE062012070BD616C2A68D26A9142FC
:102CB000F8D370BD70B504004FF000003FD04B4D0D
:102CC0001C3D29688C4207D0502080F31188BFF347
:102CD0004F8FBFF36F8FFEE7A16C89B3491EA164CC
:102CE000636CE26A9A422AD0002928D1201DFEF79F
:102CF00077F9606CE062C0F10700A061E06A2969C1
:102D0000884200D928613A4A00EB800002EB80003B
:102D10004068A0608168E1608368211D596081601E
:102D2000E06A00EB800002EB80006061E06A00EB8B
:102D3000800052F82010491C42F82010012070BD7C
:102D4000FFE7502080F31188BFF34F8FBFF36F8FE1
:102D5000FEE770B50400F2D0A26CAAB1606C8842A4
:102D600000D30146E06A8842E9D0012AE7D11F4E2C
:102D70001C3E326894420FD1502080F31188BFF37B
:102D80004F8FBFF36F8FFEE7502080F31188BFF3A2
:102D90004F8FBFF36F8FFEE7E162A269002A02DB6B
:102DA000C1F10701A161124D00EB8000616905EBE3
:102DB00080008142C3D1201DFEF712F9E06A31691B
:102DC000884200D9306100EB800005EB800040684C
:102DD000A0608168E1608268211D51608160E06AC5
:102DE00000EB800005EB8000606103E054000020F0
:102DF00024080020E06A00EB800055F82010491CF0
:102E000045F820109BE7F84908680A688069D26A8B
:102E10000968C2F107028A617FE4F348006800286C
:102E200002D0816C491C816477E42DE9F04117469A
:102E30000E46002438B1502080F31188BFF34F8F25
:102E4000BFF36F8FFEE7FFF70AFA00F091FEE64D41
:102E50002868C06C28B92868012180F8501007B193
:102E6000012400F0A1FE1CB101213846FFF7BDF995
:102E7000FFF71AF944B138B9DC494FF080500860C7
:102E8000BFF34F8FBFF36F8F00F072FE2868C46CE2
:102E9000002034B116B12968C86402E02A68611EB6
:102EA000D164296881F8500000F07EFE204697E644
:102EB0002DE9F0471E46DDF8208091460F4600249C
:102EC00038B1502080F31188BFF34F8FBFF36F8F5D
:102ED000FEE7FFF7C4F900F04BFEC34D286890F8F9
:102EE000500002280BD02868C16CB943C16428681F
:102EF000012180F85010B8F1000F00D0012400F03B
:102F000053FE1CB101214046FFF76FF9FFF7CCF8E3
:102F100044B138B9B5494FF080500860BFF34F8FC6
:102F2000BFF36F8F00F024FE16B12868C06C3060CC
:102F3000286890F85000022801D0002405E0286895
:102F4000C16C21EA0901C16401242968002081F8CB
:102F5000500000F029FE2046BDE8F0872DE9F04141
:102F60009846069F1646012539B1502080F31188F6
:102F7000BFF34F8FBFF36F8FFEE798B1044600F0A9
:102F8000F7FD0FB1E06C386094F85000022184F82E
:102F90005010954AB8F1050F19D2DFE808F0220B5E
:102FA0000E141200502080F31188BFF34F8FBFF32F
:102FB0006F8FFEE7E16C314301E0E16C491CE16495
:102FC0000FE0022801D0E6640BE0002553E0D16851
:102FD00039B1502080F31188BFF34F8FBFF36F8F4B
:102FE000FEE7012847D1D4E9023160699960D4E94C
:102FF000021359604368211D8B4201D1E36843608D
:103000000023636103685B1E0360E06A13699842F2
:1030100000D91061764B00EB800003EB8000406824
:10302000A0608668E660866871608160E06A00EB97
:10303000800003EB80006061E06A00EB800053F8E1
:103040002010491C43F82010A06A38B1502080F3AA
:103050001188BFF34F8FBFF36F8FFEE71068E16AEF
:10306000C06A884207D261494FF080500860BFF3C0
:103070004F8FBFF36F8F00F097FD2846B0E52DE925
:10308000F0479946DDE90886174604004FF0010530
:1030900008D079B1502080F31188BFF34F8FBFF370
:1030A0006F8FFEE7502080F31188BFF34F8FBFF37F
:1030B0006F8FFEE700F09DFD5020EFF3118380F34A
:1030C0001188BFF34F8FBFF36F8FB8F1000F02D09D
:1030D000E16CC8F8001094F85000022184F85010F8
:1030E000414AB9F1050F11D2DFE809F01A03060CC5
:1030F0000A00E16C394301E0E16C491CE1640FE036
:10310000022801D0E7640BE0002533E0D16839B133
:10311000502080F31188BFF34F8FBFF36F8FFEE70E
:10312000012827D1A06A38B1502080F31188BFF35D
:103130004F8FBFF36F8FFEE7106BF8B12C4FB43792
:103140007868E06181682162D0F808C004F1180154
:10315000CCF804108160A7623868401C3860E06ACF
:103160001168C96A884205D9012006B130601E493C
:103170001C31086083F311882846EDE6D4E902711A
:103180006069B960D4E9021779604768211D8F42F0
:1031900001D1E76847600027676107687F1E076005
:1031A000E06A1769B84200D91061114F00EB800046
:1031B00007EB80004068A060D0F808C0C4F80CC0DD
:1031C000D0F808C0CCF804108160E06A00EB800001
:1031D00007EB80006061E06A00EB800057F8201088
:1031E000491C47F82010BAE73800002004ED00E041
:1031F000240800202DE9F0411546040008D079B1DB
:10320000502080F31188BFF34F8FBFF36F8FFEE71D
:10321000502080F31188BFF34F8FBFF36F8FFEE70D
:1032200000F0E7FC5020EFF3118280F31188BFF328
:103230004F8FBFF36F8F94F85000022184F8501025
:10324000E16C491CE164012825D1A06A38B1502005
:1032500080F31188BFF34F8FBFF36F8FFEE78B4B67
:10326000186BD8B18A4E7068E06181682162876806
:1032700004F1180179608160A6623068401C3060FA
:10328000E06A1968C96A884205D9012005B1286039
:103290007E491C31086082F31188A1E4D4E90261FF
:1032A0006069B160D4E9021671604668211D8E42E2
:1032B00001D1E6684660002666610668761E0660F3
:1032C000E06A1E69B04200D91861714E00EB8000BF
:1032D000B43E06EB80004068A0608768E7608768BE
:1032E00079608160E06A00EB800006EB800060613D
:1032F000E06A00EB800056F82010491C46F82010C8
:10330000BEE710B539B1502080F31188BFF34F8F5D
:10331000BFF36F8FFEE758B1044600F029FC94F824
:103320005000022807D0002400F03EFC204610BDCB
:1033300056480468F1E7002084F850000124F3E7C0
:1033400070B5154639B1502080F31188BFF34F8F07
:10335000BFF36F8FFEE750B1044600F009FCE66C46
:10336000E06CA843E06400F01FFC3046E7E4474807
:103370000468F2E7474B036003F1540008604FF420
:103380008070106030E4414A00211160516091600A
:10339000D160116151619161084602F11C0343F84B
:1033A0002010401C0128FADB116251629162116306
:1033B0001AE42DE9FF5F9846DDE90F540E9F119E38
:1033C00091468A468346CDB104B35420014600900D
:1033D000204600F033FE0220256384F851000020CF
:1033E000CDE90240CDE9007643464A46514658466B
:1033F000FEF766FC04B02046BDE8F09F502080F345
:103400001188BFF34F8FBFF36F8FFEE7502080F31B
:103410001188BFF34F8FBFF36F8FFEE71B48416BDF
:10342000096821B1416BC96809688162F4E44FF011
:10343000FF31FAE7F0B58BB0002003AA16A1095CB2
:10344000115411B1401C1028F8DB00240F4E254602
:103450003C36134F079509AA08A907A80895FFF756
:1034600055F9DDE907010095CDE90110002303A915
:103470003846099AFEF7DEFC46F82400002803D0FF
:103480000120641C012CE4DB0BB0F0BD38000020EF
:10349000D8080020D003002049444C45000000001B
:1034A0005327000870B500244160FB4D0061914234
:1034B00006D8D11A8269914206D2011D286907E017
:1034C0009A4203D2994201D3012403E0011DE86826
:1034D000FDF76EFD204670BD70B50646EE480D4600
:1034E000C068C068C468201DFDF77AFD94F8240008
:1034F000410705D52A463146204600F061FA03E02F
:1035000000F0FE0084F824002046216ABDE87040E7
:1035100008472DE9F0410646FFF770F9DE4D0446F5
:10352000A868844214D24FF0FF3704E0C0683946DF
:103530000068FFF7D1FFE86801680029F6D1296922
:10354000C5E90310012030602046AC60BDE8F08181
:103550000020F8E77FB5002000900190CE4E029049
:1035600063E00098002860DB029C606910B1201DB8
:10357000FDF736FD03A8FFF7CCFF054600980A28A3
:1035800053D2DFE800F0520505282E460505282E07
:1035900094F824002A4640F0010084F824000198A1
:1035A000A169034601442046FFF77CFF40B394F82D
:1035B0002400410707D50198A1692A460144204605
:1035C00000F0FEF903E000F0FE0084F82400216A18
:1035D0002046884729E014F8240F00F0FE002070F0
:1035E00023E094F8240040F0010084F824000198BE
:1035F000A06130B141192B461A462046FFF752FF11
:1036000013E0502080F31188BFF34F8FBFF36F8F0B
:10361000FEE794F82400810703D4204600F0B1FBB4
:1036200003E000F0FE0084F82400002269463068C0
:10363000FEF7D6F8002894D17FBD974CE06801686A
:1036400039B1002139B1002000F0CEF9FFF782FF37
:10365000F4E70121F6E7C0680068F5E738B500F047
:1036600087FA8D4C2068A8B98C48FDF787FC8B48F9
:103670001430FDF783FC8948E06014302061874BEB
:103680000020C03B009003F148020C210A20FDF706
:103690000EFD2060BDE8384000F086BA10B586B057
:1036A000FFF7DCFF7C4C2068B8B100200390049049
:1036B00005AA04A903A8FFF75DFEDDE903210620A2
:1036C0008DE80700002376A17748059AFEF7B2FB44
:1036D000606010B106B0012010BD502080F3118849
:1036E000BFF34F8FBFF36F8FFEE72DE9F0471F4603
:1036F000DDE9089416460D00804613D0FFF7AEFFB3
:1037000004F11801C4F8008081E8A002201DFDF733
:1037100040FC002E04D014F8240F40F00400207068
:10372000BDE8F087502080F31188BFF34F8FBFF3BF
:103730006F8FFEE72DE9FC4781461E4617468846F7
:1037400028200A9D00F084FA04000AD0002084F8A2
:103750002400CDE9005433463A4641464846FFF737
:10376000C4FF2046BDE8FC877CB52826DDE9065469
:10377000009644B1022684F82460CDE90054FFF796
:10378000B4FF20467CBD502080F31188BFF34F8FDB
:10379000BFF36F8FFEE7FEB513460200089D4FF0A2
:1037A000000010D03C4C2668002E1FD0CDE900133D
:1037B000029206290FDB502080F31188BFF34F8F50
:1037C000BFF36F8FFEE7502080F31188BFF34F8F58
:1037D000BFF36F8FFEE7FFF714FA02284FF00003E4
:1037E00005D0002269462068FDF736FDFEBD2A4659
:1037F000F8E7FEB51E46050013464FF000000FD057
:10380000254A1468002C19D08DE82A0006290FDA01
:10381000502080F31188BFF34F8FBFF36F8FFEE707
:10382000502080F31188BFF34F8FBFF36F8FFEE7F7
:103830000023324669462046FDF7F5FEFEBD1648D8
:103840004068002807D1502080F31188BFF34F8FC4
:10385000BFF36F8FFEE7704708B180697047502053
:1038600080F31188BFF34F8FBFF36F8FFEE770B502
:103870000D46040007D000F07BF914F8240FADB119
:1038800040F0040014E0502080F31188BFF34F8F04
:10389000BFF36F8FFEE7000078000020D4090020FE
:1038A000546D7220537663003B36000800F0FB0035
:1038B0002070BDE8704000F077B910B5040007D063
:1038C00000F056F994F82400400709D4002408E0D9
:1038D000502080F31188BFF34F8FBFF36F8FFEE747
:1038E000012400F061F9204610BDE6E708B1406808
:1038F0007047502080F31188BFF34F8FBFF36F8F55
:10390000FEE731B190F8242092070AD50860012023
:103910007047502080F31188BFF34F8FBFF36F8F34
:10392000FEE70020704708B100687047502080F320
:103930001188BFF34F8FBFF36F8FFEE710B5040000
:103940000AD000F015F994F82400C0070CD0012427
:1039500000F02AF9204610BD502080F31188BFF3F3
:103960004F8FBFF36F8FFEE70024F1E710B504001F
:1039700006D000F0FDF8E46900F016F9204610BD0D
:10398000502080F31188BFF34F8FBFF36F8FFEE796
:1039900070B50D46040006D000F0EAF8E561BDE818
:1039A000704000F001B9502080F31188BFF34F8FB1
:1039B000BFF36F8FFEE7254800210160416070472B
:1039C00070B516460C46054604E0A869296A044409
:1039D00028468847A8692346011932462846FFF73A
:1039E00061FD0028F1D170BDF8B50D460646FEF721
:1039F00036FC6846FFF78DFD0446009810B1FEF7CF
:103A000053FBF8BD1148ADB101690968D9B1002572
:103A1000311B2A460068FEF70CF9FEF745FB00282B
:103A2000EFD10B494FF080500860BFF34F8FBFF3C9
:103A30006F8FF8BDA642EBD8FEF736FB2146304625
:103A4000FFF74AFDF8BD0125E2E7000078000020FD
:103A500004ED00E07A484068401C4FF0500080F3CD
:103A6000118804D0BFF34F8FBFF36F8FFEE7BFF312
:103A70004F8FBFF36F8FFEE710B5031F4FF08074B9
:103A80001C601B1F21F001011960191F6D4B0B6099
:103A9000143940380A6010BD4FF0E0200021016168
:103AA000816142F2273141610321016170473EB5D6
:103AB00065490025019508788DF80800FF200870F9
:103AC00008788DF800009DF800005D4C10F0500063
:103AD00020700CD09DF800205020904316D050202C
:103AE00080F31188BFF34F8FBFF36F8FFEE7502035
:103AF00080F31188BFF34F8FBFF36F8FFEE7401C39
:103B000001909DF8000040008DF800009DF8000035
:103B100000060198F3D408281AD0C0F10700A0606D
:103B2000207A000200F4E060A0609DF808000870B0
:103B30004648016841F47F010160016841F07F411E
:103B40000160FFF7A9FF6560FCF752FB00203EBD56
:103B5000A560E5E73A484068B0F57A7F07D0502085
:103B600080F31188BFF34F8FBFF36F8FFEE770476D
:103B7000502080F31188BFF34F8FBFF36F8F304910
:103B80004868401C486001280DD130481C38006846
:103B900010F0FF0F07D0502080F31188BFF34F8F34
:103BA000BFF36F8FFEE770472549486828B1401E74
:103BB000486001D180F311887047502080F311884C
:103BC000BFF34F8FBFF36F8FFEE710B5502080F328
:103BD0001188BFF34F8FBFF36F8FFEF7D6F920B177
:103BE0001A494FF080501C390860002080F311887A
:103BF00010BD10B5FCF732FB114910280ED300F1AF
:103C0000E02090F8F0030A78904207D2502080F329
:103C10001188BFF34F8FBFF36F8FFEE70B48143847
:103C20000068896800F4E060884207D9502080F37A
:103C30001188BFF34F8FBFF36F8FFEE710BD0000F9
:103C40008C000020553A000800E400E020ED00E080
:103C50002DE9F04104004FF000050FD014F1090FD9
:103C60000BD80834600709D004F00700C0F1080041
:103C7000C1438C4201D8044400E00024FEF7EFFA6F
:103C8000B74E306808B900F015F9002C6ADD776886
:103C9000BC4267D8B248DFF8CCC21430014609688C
:103CA000614502D3B04B994215D9502080F3118859
:103CB000BFF34F8FBFF36F8FFEE708461146624593
:103CC00001D3994207D9502080F31188BFF34F8F59
:103CD000BFF36F8FFEE74A68A24202D20A68002A49
:103CE000EBD1326891423DD005680835654501D376
:103CF0009D4207D9502080F31188BFF34F8FBFF347
:103D00006F8FFEE70A6802604A68A24207D250201D
:103D100080F31188BFF34F8FBFF36F8FFEE7131B44
:103D2000102B10D90A195FEA427C07D0502080F38B
:103D30001188BFF34F8FBFF36F8FFEE753604C6066
:103D40000368136002604A68B81A7060B3689842EA
:103D500000D2B06042F00040486000200860F06887
:103D6000401CF060FEF7A0F9680707D0502080F3F0
:103D70001188BFF34F8FBFF36F8FFEE72846BDE872
:103D8000F08170B500283FD0083876490446884253
:103D900002D375498C4207D9502080F31188BFF3B4
:103DA0004F8FBFF36F8FFEE76168002907DB50205C
:103DB00080F31188BFF34F8FBFF36F8FFEE7226848
:103DC0003AB1502080F31188BFF34F8FBFF36F8F4C
:103DD000FEE721F000416160082904D304F10800E6
:103DE000083900F009F9FEF73AFA5D4D6068696834
:103DF00008446860204600F07CF82869401C28616F
:103E0000BDE87040FEF750B970BD55484068704736
:103E1000534880687047704770B5002420B1621E17
:103E2000B2FBF0F28A4208D348430546FFF710FF81
:103E3000040002D0294600F0DFF8204670BD2DE9CD
:103E4000F041002704463E467D1EFEF708FA44482E
:103E5000DFF80C811430006868B1D8F80020904277
:103E600009D041687F1CB14200D90E46A94200D258
:103E70000D460068F3E7FEF717F9E760C4E901654E
:103E8000FFF776FED8F804102160D8F80C106161B5
:103E9000D8F81010A161D8F808002061BDE8F04101
:103EA000FFF782BE2E480021016041608160C16041
:103EB000016170472B484FF4A041420706D0C01D56
:103EC000284920F00700411AC1F5A041244B0022E7
:103ED00014330144C3E900020839143B21F00701FF
:103EE00019604A600A600A1AC0E900129A605A60B2
:103EF000704730B51A49143100E011460A68824211
:103F0000FBD3174B143399420DD0164B994202D371
:103F1000154B994207D9502080F31188BFF34F8F7A
:103F2000BFF36F8FFEE74B685C18844203D1406893
:103F300018444860084643681C18944208D1084C4D
:103F40002468A24209D052681A4442600A68126882
:103F50000260814200D0086030BD0460F9E70000D3
:103F600098000020FC090020FB5900207047032A1C
:103F700040F2308010F0030C00F0158011F8013B86
:103F8000BCF1020F624498BF11F801CB00F8013B6D
:103F900038BF11F8013BA2F1040298BF00F801CB31
:103FA00038BF00F8013B11F0030300F07280083ABB
:103FB000C0F0088051F8043B083A51F804CBA0E85F
:103FC0000810F5E7121D5CBF51F8043B40F8043BB4
:103FD000AFF30080D20724BF11F8013B11F801CBE9
:103FE00048BF11F8012B24BF00F8013B00F801CBBA
:103FF00048BF00F8012B70474FF000020429C0F0C1
:10400000128010F0030C00F01B80CCF1040CBCF10A
:10401000020F18BF00F8012BA8BF20F8022BA1EB5C
:104020000C0100F00DB85FEAC17C24BF00F8012B41
:1040300000F8012B48BF00F8012B70474FF0000239
:1040400000B5134694469646203922BFA0E80C508E
:10405000A0E80C50B1F12001BFF4F7AF090728BF69
:10406000A0E80C5048BF0CC05DF804EB890028BFE5
:1040700040F8042B08BF704748BF20F8022B11F00E
:10408000804F18BF00F8012B70477047704770478A
:10409000704710B5203AC0F00B80B1E81850203AB4
:1040A000A0E81850B1E81850A0E81850BFF4F5AFD8
:1040B0005FEA027C24BFB1E81850A0E8185044BF62
:1040C00018C918C0BDE810405FEA827C24BF51F8CF
:1040D000043B40F8043B08BF7047D20728BF31F8C3
:1040E000023B48BF11F8012B28BF20F8023B48BF14
:1040F00000F8012B7047754600F02CF8AE4605001D
:104100006946534620F00700854618B020B5FCF7F5
:10411000A9FABDE820404FF000064FF000074FF02D
:1041200000084FF0000B21F00701AC46ACE8C009D5
:10413000ACE8C009ACE8C009ACE8C0098D467047DE
:1041400010B50446AFF300802046BDE81040FCF7F0
:1041500036B8000000487047FC5900207C41000838
:1041600000000020B40000006C010008304200088C
:10417000B4000020AC5F00008801000800000000CF
:10418000000000000000000000A24A04000000003F
:1041900000000000010203040607080900000204F1
:1041A00006080000000001020304010203040607E0
:1041B00008090000000000000000000000000000EE
:1041C00000000000000000000000000000000000EF
:1041D00000000000000000000000000000000000DF
:1041E00006000000000000000000000000000000C9
:1041F00000000000000000000000000000000000BF
:10420000000000000000000000000000AAAAAAAA06
:10421000000000000000000000000000000000009E
:10422000000000000000000000000000000000008E
:0400000508000131BD
:00000001FF
